{
  "contractName": "authentification",
  "abi": [
    {
      "anonymous": false,
      "inputs": [
        {
          "indexed": true,
          "internalType": "uint256",
          "name": "date",
          "type": "uint256"
        },
        {
          "indexed": false,
          "internalType": "string",
          "name": "value",
          "type": "string"
        }
      ],
      "name": "retour",
      "type": "event"
    },
    {
      "constant": true,
      "inputs": [],
      "name": "owner",
      "outputs": [
        {
          "internalType": "address",
          "name": "",
          "type": "address"
        }
      ],
      "payable": false,
      "stateMutability": "view",
      "type": "function"
    },
    {
      "constant": false,
      "inputs": [
        {
          "internalType": "address",
          "name": "adr",
          "type": "address"
        },
        {
          "internalType": "string[]",
          "name": "_app",
          "type": "string[]"
        }
      ],
      "name": "ajouterUtilisateur",
      "outputs": [
        {
          "internalType": "string",
          "name": "",
          "type": "string"
        }
      ],
      "payable": false,
      "stateMutability": "nonpayable",
      "type": "function"
    },
    {
      "constant": false,
      "inputs": [
        {
          "internalType": "address",
          "name": "adr",
          "type": "address"
        }
      ],
      "name": "supprimerUtilisateur",
      "outputs": [],
      "payable": false,
      "stateMutability": "nonpayable",
      "type": "function"
    },
    {
      "constant": false,
      "inputs": [
        {
          "internalType": "address",
          "name": "adr",
          "type": "address"
        },
        {
          "internalType": "string[]",
          "name": "_app",
          "type": "string[]"
        }
      ],
      "name": "modifierUtilisateur",
      "outputs": [
        {
          "internalType": "string",
          "name": "",
          "type": "string"
        }
      ],
      "payable": false,
      "stateMutability": "nonpayable",
      "type": "function"
    },
    {
      "constant": true,
      "inputs": [],
      "name": "voirUtilisateurs",
      "outputs": [
        {
          "internalType": "string[]",
          "name": "",
          "type": "string[]"
        }
      ],
      "payable": false,
      "stateMutability": "view",
      "type": "function"
    },
    {
      "constant": true,
      "inputs": [
        {
          "internalType": "address",
          "name": "_address",
          "type": "address"
        }
      ],
      "name": "voirUtilisateur",
      "outputs": [
        {
          "internalType": "string[]",
          "name": "",
          "type": "string[]"
        }
      ],
      "payable": false,
      "stateMutability": "view",
      "type": "function"
    },
    {
      "constant": true,
      "inputs": [
        {
          "internalType": "address",
          "name": "adr",
          "type": "address"
        },
        {
          "internalType": "string",
          "name": "_app",
          "type": "string"
        },
        {
          "internalType": "bytes32",
          "name": "hash",
          "type": "bytes32"
        },
        {
          "internalType": "bytes",
          "name": "signature",
          "type": "bytes"
        }
      ],
      "name": "authentication",
      "outputs": [
        {
          "internalType": "string",
          "name": "",
          "type": "string"
        }
      ],
      "payable": false,
      "stateMutability": "view",
      "type": "function"
    }
  ],
  "bytecode": "0x6080604052336000806101000a81548173ffffffffffffffffffffffffffffffffffffffff021916908373ffffffffffffffffffffffffffffffffffffffff16021790555034801561005057600080fd5b50611e70806100606000396000f3fe608060405234801561001057600080fd5b506004361061007d5760003560e01c80638da5cb5b1161005b5780638da5cb5b146100fe578063c0cc973d1461011c578063f0f320c51461014c578063f79369fa1461017c5761007d565b80630e5ff5fe146100825780634fcf608c1461009e57806384ce0148146100ce575b600080fd5b61009c60048036036100979190810190611495565b61019a565b005b6100b860048036036100b391908101906114be565b6103e9565b6040516100c59190611ac7565b60405180910390f35b6100e860048036036100e39190810190611512565b610602565b6040516100f59190611ac7565b60405180910390f35b610106610898565b6040516101139190611a45565b60405180910390f35b61013660048036036101319190810190611495565b6108bd565b6040516101439190611a60565b60405180910390f35b610166600480360361016191908101906114be565b6109e5565b6040516101739190611ac7565b60405180910390f35b610184610b52565b6040516101919190611a60565b60405180910390f35b6000809054906101000a900473ffffffffffffffffffffffffffffffffffffffff1673ffffffffffffffffffffffffffffffffffffffff163373ffffffffffffffffffffffffffffffffffffffff1614156103af576101f881610c9c565b1561037357600080600090505b60028054905081101561028e578273ffffffffffffffffffffffffffffffffffffffff166002828154811061023657fe5b9060005260206000200160009054906101000a900473ffffffffffffffffffffffffffffffffffffffff1673ffffffffffffffffffffffffffffffffffffffff161415610281578091505b8080600101915050610205565b506002818154811061029c57fe5b9060005260206000200160006101000a81549073ffffffffffffffffffffffffffffffffffffffff0219169055600381815481106102d657fe5b9060005260206000200160006102ec91906110e1565b600160008373ffffffffffffffffffffffffffffffffffffffff1673ffffffffffffffffffffffffffffffffffffffff16815260200190815260200160002060006103379190611129565b427f4b49773f56e8d86e7ddabd2e09adbd801b07e67fc4318754c13663b4ae5121e360405161036590611b09565b60405180910390a2506103aa565b427f4b49773f56e8d86e7ddabd2e09adbd801b07e67fc4318754c13663b4ae5121e36040516103a190611b49565b60405180910390a25b6103e6565b427f4b49773f56e8d86e7ddabd2e09adbd801b07e67fc4318754c13663b4ae5121e36040516103dd90611ae9565b60405180910390a25b50565b60606000809054906101000a900473ffffffffffffffffffffffffffffffffffffffff1673ffffffffffffffffffffffffffffffffffffffff163373ffffffffffffffffffffffffffffffffffffffff1614156105c55761044983610c9c565b6105895760028390806001815401808255809150509060018203906000526020600020016000909192909190916101000a81548173ffffffffffffffffffffffffffffffffffffffff021916908373ffffffffffffffffffffffffffffffffffffffff1602179055505060036104be84610d3d565b90806001815401808255809150509060018203906000526020600020016000909192909190915090805190602001906104f892919061114a565b505081600160008573ffffffffffffffffffffffffffffffffffffffff1673ffffffffffffffffffffffffffffffffffffffff168152602001908152602001600020908051906020019061054d9291906111ca565b50427f4b49773f56e8d86e7ddabd2e09adbd801b07e67fc4318754c13663b4ae5121e360405161057c90611ba9565b60405180910390a26105c0565b427f4b49773f56e8d86e7ddabd2e09adbd801b07e67fc4318754c13663b4ae5121e36040516105b790611b89565b60405180910390a25b6105fc565b427f4b49773f56e8d86e7ddabd2e09adbd801b07e67fc4318754c13663b4ae5121e36040516105f390611b29565b60405180910390a25b92915050565b606061060d85610c9c565b15610874578473ffffffffffffffffffffffffffffffffffffffff166106338484610fbe565b73ffffffffffffffffffffffffffffffffffffffff16141561083757600080905060008090505b600160008873ffffffffffffffffffffffffffffffffffffffff1673ffffffffffffffffffffffffffffffffffffffff168152602001908152602001600020805490508110156107b15761079a600160008973ffffffffffffffffffffffffffffffffffffffff1673ffffffffffffffffffffffffffffffffffffffff16815260200190815260200160002082815481106106f157fe5b906000526020600020018054600181600116156101000203166002900480601f01602080910402602001604051908101604052809291908181526020018280546001816001161561010002031660029004801561078f5780601f106107645761010080835404028352916020019161078f565b820191906000526020600020905b81548152906001019060200180831161077257829003601f168201915b505050505087611088565b156107a457600191505b808060010191505061065a565b5060018114156107f9576040518060400160405280600281526020017f6f6b000000000000000000000000000000000000000000000000000000000000815250915050610890565b6040518060400160405280600d81526020017f6e6f6e2061747472696275c3a900000000000000000000000000000000000000815250915050610890565b6040518060400160405280601581526020017f7369676e6174757265206e6f6e2076616c61626c6500000000000000000000008152509050610890565b604051806060016040528060258152602001611e096025913990505b949350505050565b6000809054906101000a900473ffffffffffffffffffffffffffffffffffffffff1681565b6060600160008373ffffffffffffffffffffffffffffffffffffffff1673ffffffffffffffffffffffffffffffffffffffff168152602001908152602001600020805480602002602001604051908101604052809291908181526020016000905b828210156109da578382906000526020600020018054600181600116156101000203166002900480601f0160208091040260200160405190810160405280929190818152602001828054600181600116156101000203166002900480156109c65780601f1061099b576101008083540402835291602001916109c6565b820191906000526020600020905b8154815290600101906020018083116109a957829003601f168201915b50505050508152602001906001019061091e565b505050509050919050565b60606000809054906101000a900473ffffffffffffffffffffffffffffffffffffffff1673ffffffffffffffffffffffffffffffffffffffff163373ffffffffffffffffffffffffffffffffffffffff161415610b1557610a4583610c9c565b15610ad95781600160008573ffffffffffffffffffffffffffffffffffffffff1673ffffffffffffffffffffffffffffffffffffffff1681526020019081526020016000209080519060200190610a9d9291906111ca565b50427f4b49773f56e8d86e7ddabd2e09adbd801b07e67fc4318754c13663b4ae5121e3604051610acc90611bc9565b60405180910390a2610b10565b427f4b49773f56e8d86e7ddabd2e09adbd801b07e67fc4318754c13663b4ae5121e3604051610b0790611b69565b60405180910390a25b610b4c565b427f4b49773f56e8d86e7ddabd2e09adbd801b07e67fc4318754c13663b4ae5121e3604051610b4390611b29565b60405180910390a25b92915050565b6060806000809054906101000a900473ffffffffffffffffffffffffffffffffffffffff1673ffffffffffffffffffffffffffffffffffffffff163373ffffffffffffffffffffffffffffffffffffffff161415610c94576003805480602002602001604051908101604052809291908181526020016000905b82821015610c88578382906000526020600020018054600181600116156101000203166002900480601f016020809104026020016040519081016040528092919081815260200182805460018160011615610100020316600290048015610c745780601f10610c4957610100808354040283529160200191610c74565b820191906000526020600020905b815481529060010190602001808311610c5757829003601f168201915b505050505081526020019060010190610bcc565b50505050915050610c99565b809150505b90565b6000806000905060008090505b600280549050811015610d33578373ffffffffffffffffffffffffffffffffffffffff1660028281548110610cda57fe5b9060005260206000200160009054906101000a900473ffffffffffffffffffffffffffffffffffffffff1673ffffffffffffffffffffffffffffffffffffffff161415610d2657600191505b8080600101915050610ca9565b5080915050919050565b606060008273ffffffffffffffffffffffffffffffffffffffff1660001b905060606040518060400160405280601081526020017f303132333435363738396162636465660000000000000000000000000000000081525090506060602a6040519080825280601f01601f191660200182016040528015610dcd5781602001600182028038833980820191505090505b5090507f300000000000000000000000000000000000000000000000000000000000000081600081518110610dfe57fe5b60200101907effffffffffffffffffffffffffffffffffffffffffffffffffffffffffffff1916908160001a9053507f780000000000000000000000000000000000000000000000000000000000000081600181518110610e5b57fe5b60200101907effffffffffffffffffffffffffffffffffffffffffffffffffffffffffffff1916908160001a90535060008090505b6014811015610fb25782600485600c840160208110610eab57fe5b1a60f81b7effffffffffffffffffffffffffffffffffffffffffffffffffffffffffffff1916901c60f81c60ff1681518110610ee357fe5b602001015160f81c60f81b826002830260020181518110610f0057fe5b60200101907effffffffffffffffffffffffffffffffffffffffffffffffffffffffffffff1916908160001a90535082600f60f81b85600c840160208110610f4457fe5b1a60f81b1660f81c60ff1681518110610f5957fe5b602001015160f81c60f81b826002830260030181518110610f7657fe5b60200101907effffffffffffffffffffffffffffffffffffffffffffffffffffffffffffff1916908160001a9053508080600101915050610e90565b50809350505050919050565b6000806000806041855114610fd95760009350505050611082565b6020850151925060408501519150606085015160001a9050601b8160ff16101561100457601b810190505b601b8160ff161415801561101c5750601c8160ff1614155b1561102d5760009350505050611082565b600186828585604051600081526020016040526040516110509493929190611a82565b6020604051602081039080840390855afa158015611072573d6000803e3d6000fd5b5050506020604051035193505050505b92915050565b60008160405160200161109b9190611a2e565b60405160208183030381529060405280519060200120836040516020016110c29190611a2e565b6040516020818303038152906040528051906020012014905092915050565b50805460018160011615610100020316600290046000825580601f106111075750611126565b601f016020900490600052602060002090810190611125919061122a565b5b50565b5080546000825590600052602060002090810190611147919061124f565b50565b828054600181600116156101000203166002900490600052602060002090601f016020900481019282601f1061118b57805160ff19168380011785556111b9565b828001600101855582156111b9579182015b828111156111b857825182559160200191906001019061119d565b5b5090506111c6919061122a565b5090565b828054828255906000526020600020908101928215611219579160200282015b8281111561121857825182908051906020019061120892919061127b565b50916020019190600101906111ea565b5b509050611226919061124f565b5090565b61124c91905b80821115611248576000816000905550600101611230565b5090565b90565b61127891905b80821115611274576000818161126b91906110e1565b50600101611255565b5090565b90565b828054600181600116156101000203166002900490600052602060002090601f016020900481019282601f106112bc57805160ff19168380011785556112ea565b828001600101855582156112ea579182015b828111156112e95782518255916020019190600101906112ce565b5b5090506112f7919061122a565b5090565b60008135905061130a81611dda565b92915050565b600082601f83011261132157600080fd5b813561133461132f82611c16565b611be9565b9150818183526020840193506020810190508360005b8381101561137a578135860161136088826113ed565b84526020840193506020830192505060018101905061134a565b5050505092915050565b60008135905061139381611df1565b92915050565b600082601f8301126113aa57600080fd5b81356113bd6113b882611c3e565b611be9565b915080825260208301602083018583830111156113d957600080fd5b6113e4838284611d87565b50505092915050565b600082601f8301126113fe57600080fd5b813561141161140c82611c6a565b611be9565b9150808252602083016020830185838301111561142d57600080fd5b611438838284611d87565b50505092915050565b600082601f83011261145257600080fd5b813561146561146082611c96565b611be9565b9150808252602083016020830185838301111561148157600080fd5b61148c838284611d87565b50505092915050565b6000602082840312156114a757600080fd5b60006114b5848285016112fb565b91505092915050565b600080604083850312156114d157600080fd5b60006114df858286016112fb565b925050602083013567ffffffffffffffff8111156114fc57600080fd5b61150885828601611310565b9150509250929050565b6000806000806080858703121561152857600080fd5b6000611536878288016112fb565b945050602085013567ffffffffffffffff81111561155357600080fd5b61155f87828801611441565b935050604061157087828801611384565b925050606085013567ffffffffffffffff81111561158d57600080fd5b61159987828801611399565b91505092959194509250565b60006115b183836116b6565b905092915050565b6115c281611d3e565b82525050565b60006115d382611cd2565b6115dd8185611d00565b9350836020820285016115ef85611cc2565b8060005b8581101561162b578484038952815161160c85826115a5565b945061161783611cf3565b925060208a019950506001810190506115f3565b50829750879550505050505092915050565b61164681611d50565b82525050565b600061165782611ce8565b6116618185611d22565b9350611671818560208601611d96565b61167a81611dc9565b840191505092915050565b600061169082611ce8565b61169a8185611d33565b93506116aa818560208601611d96565b80840191505092915050565b60006116c182611cdd565b6116cb8185611d11565b93506116db818560208601611d96565b6116e481611dc9565b840191505092915050565b60006116fc603383611d22565b91507f20636574746520666f6e6374696f6e20657374206578636c757369766520612060008301527f6c2761646d696e6973747261746575722e2e2e000000000000000000000000006020830152604082019050919050565b6000611762602483611d22565b91507f7574696c69736174657572207375707072696dc3a920617665632073756363c360008301527fa8732e2e000000000000000000000000000000000000000000000000000000006020830152604082019050919050565b60006117c8602f83611d22565b91507f636574746520666f6e6374696f6e20657374206578636c75736976652061206c60008301527f2761646d696e69737472617465757200000000000000000000000000000000006020830152604082019050919050565b600061182e602683611d22565b91507f206365747465207574696c697361746575722065737420696e6578697374616e60008301527f742e2e2e2e2e00000000000000000000000000000000000000000000000000006020830152604082019050919050565b6000611894602c83611d22565b91507f7574696c6973617465757220696e6578697374616e742e2e2e70656e73657a2060008301527f61206c27616a6f757465722000000000000000000000000000000000000000006020830152604082019050919050565b60006118fa602c83611d22565b91507f7574696c69736174657572206578697374616e742e2e2e70656e73657a20612060008301527f6c65206d6f646f666965722000000000000000000000000000000000000000006020830152604082019050919050565b6000611960602283611d22565b91507f7574696c6973617465757220616a6f7574c3a920617665632073756363c3a87360008301527f2e2e0000000000000000000000000000000000000000000000000000000000006020830152604082019050919050565b60006119c6602383611d22565b91507f7574696c69736174657572206d6f64696669c3a920617665632073756363c3a860008301527f732e2e00000000000000000000000000000000000000000000000000000000006020830152604082019050919050565b611a2881611d7a565b82525050565b6000611a3a8284611685565b915081905092915050565b6000602082019050611a5a60008301846115b9565b92915050565b60006020820190508181036000830152611a7a81846115c8565b905092915050565b6000608082019050611a97600083018761163d565b611aa46020830186611a1f565b611ab1604083018561163d565b611abe606083018461163d565b95945050505050565b60006020820190508181036000830152611ae1818461164c565b905092915050565b60006020820190508181036000830152611b02816116ef565b9050919050565b60006020820190508181036000830152611b2281611755565b9050919050565b60006020820190508181036000830152611b42816117bb565b9050919050565b60006020820190508181036000830152611b6281611821565b9050919050565b60006020820190508181036000830152611b8281611887565b9050919050565b60006020820190508181036000830152611ba2816118ed565b9050919050565b60006020820190508181036000830152611bc281611953565b9050919050565b60006020820190508181036000830152611be2816119b9565b9050919050565b6000604051905081810181811067ffffffffffffffff82111715611c0c57600080fd5b8060405250919050565b600067ffffffffffffffff821115611c2d57600080fd5b602082029050602081019050919050565b600067ffffffffffffffff821115611c5557600080fd5b601f19601f8301169050602081019050919050565b600067ffffffffffffffff821115611c8157600080fd5b601f19601f8301169050602081019050919050565b600067ffffffffffffffff821115611cad57600080fd5b601f19601f8301169050602081019050919050565b6000819050602082019050919050565b600081519050919050565b600081519050919050565b600081519050919050565b6000602082019050919050565b600082825260208201905092915050565b600082825260208201905092915050565b600082825260208201905092915050565b600081905092915050565b6000611d4982611d5a565b9050919050565b6000819050919050565b600073ffffffffffffffffffffffffffffffffffffffff82169050919050565b600060ff82169050919050565b82818337600083830152505050565b60005b83811015611db4578082015181840152602081019050611d99565b83811115611dc3576000848401525b50505050565b6000601f19601f8301169050919050565b611de381611d3e565b8114611dee57600080fd5b50565b611dfa81611d50565b8114611e0557600080fd5b5056fe6365747465207574696c697361746575722065737420696e6578697374616e742e2e2e2e2ea365627a7a723158208be594005d0f09b53535bc8f1bec31984b4635aed5f46b089cb7621848463ff86c6578706572696d656e74616cf564736f6c63430005100040",
  "source": "pragma solidity ^0.5.0;\npragma experimental ABIEncoderV2;\n\n\ncontract authentification{\n    \n    //*****************************************************************************partie declarative ******************************************************************************************/\n  \n    //*****le possesseur du contrat*******//\n  \n  address public owner = msg.sender;\n  \n  \n  \n  \n     //******reponse event *****************// \n     \n  event retour(\n\n     uint indexed date,\n     string value);\n  \n  \n  \n  \n     //**** association de chaque adress les application auquelles elle a le droit****//\n     \n  mapping(address => string[]) private droits;\n  \n  \n  \n  \n  \n     //*******liste globale des utilisateurs qui sont ajouts********//\n     \n  address[] private utilisateurs;\n  string[] private addresses;\n  \n\n  //********************************************************************************fonctions  administratives***********************************************************************************///\n\n      //**************ajout utilisateur**********************//\n      \n      function ajouterUtilisateur (address adr, string[] memory _app) public returns (string memory){\n          \n        // c'est l'owner qui a le droit a l'ajout des utilisateur\n    \n       if( msg.sender == owner){\n       \n       //address ne doit pas exister\n       \n       if ( !exist(adr)){       \n         \n         \n          //  ajout de l'utilisateur a la liste\n          \n            utilisateurs.push(adr);\n            addresses.push(addressToString(adr));\n            \n          //creation d'un mapping qui va contenir les applications permises\n          \n             droits[adr] = _app;\n\n             emit retour(now, \"utilisateur ajout avec succs..\");\n\n             } \n            else emit retour(now, \"utilisateur existant...pensez a le modofier \");\n             }\n\n\n            else emit retour(now, \"cette fonction est exclusive a l'administrateur\");\n          \n       }\n\n      //**************supprimer utilisateur**********************//\n\n       function supprimerUtilisateur (address adr) public  {\n          \n        // c'est l'owner qui a le droit a l'ajout des utilisateur\n\n         if( msg.sender == owner){\n       \n       //address ne doit pas exister\n       \n       if ( exist(adr)){ \n              \n          //  la suppressionde l'utilisateur a la liste\n          \n             uint b;\n             \n            for (uint i = 0; i < utilisateurs.length; i++) \n            \n                 {\n                   if ( utilisateurs[i] == adr)\n                   b = i;\n                 } \n                 \n            delete utilisateurs[b];\n\n            delete addresses[b];\n\n            delete droits[adr] ;\n\n            emit retour(now, \"utilisateur supprim avec succs..\");\n\n            }\n\n            else emit retour(now,\" cette utilisateur est inexistant.....\" );\n         }\n\n         else emit retour(now,\" cette fonction est exclusive a l'administrateur...\" );        \n       \n       }\n\n       //**************modifier utilisateur**********************//\n        \n       function modifierUtilisateur (address adr, string[] memory _app) public returns (string memory){\n          \n        // c'est l'owner qui a le droit a l'ajout des utilisateur\n    \n       if( msg.sender == owner){\n       \n       //address ne doit pas exister\n       \n       if ( exist(adr)){       \n         \n                     \n          //creation d'un mapping qui va contenir les applications permises\n          //delete droits[adr];\n             droits[adr] = _app;\n\n             emit retour(now, \"utilisateur modifi avec succs..\");\n\n             } \n            else emit retour(now, \"utilisateur inexistant...pensez a l'ajouter \");\n             }\n\n\n            else emit retour(now, \"cette fonction est exclusive a l'administrateur\");\n          \n       }\n       \n\n      //**************voir toutes les address**********************//\n      \n\n\n        function voirUtilisateurs () public view returns (string[] memory)  {\n            \n            \n         string[] memory a;\n         \n         if( msg.sender == owner){\n\n            return addresses;\n            \n         }\n         \n         else return  a;\n\n         }\n         \n     \n          \n\n         \n         \n         \n         \n      //**************voir utilisateur**********************//\n         \n         function voirUtilisateur (address _address) public view returns (string[] memory)  {\n\n           \n          \n\n        \n          \n              return droits[_address];\n\n        \n        \n        }\n\n  //********************************************************************************fonctions  authentification***********************************************************************************///\n  \n  \n         function authentication(address adr,string memory _app, bytes32 hash, bytes memory signature) public  view returns(string memory){\n             \n             \n             //address  doit  exister\n       \n       if (exist(adr)) {\n       \n       if (recover(hash,signature) == adr){\n       \n             uint b= 0;\n            \n             for (uint i = 0; i < droits[adr].length; i++) {\n                 \n                 if ( compareStrings(droits[adr][i], _app) ) b = 1;\n                 \n             }\n             \n             if (b==1) return \"ok\";\n\n             else return \"non attribu\";\n             \n       } else return \"signature non valable\";\n                   \n      }\n      else return \"cette utilisateur est inexistant.....\";\n         \n         }\n\n\n  //********************************************************************************fonctions  auxiliaires***********************************************************************************///\n\n\n\n         //**************verifier existance utilisateur**********************//\n         \n        function exist (address _address)    private view returns (bool){\n            \n         bool b = false;\n         \n         for (uint i = 0; i < utilisateurs.length; i++) {\n             \n            if ( utilisateurs[i] == _address)\n            \n             b = true;\n          }\n          \n             return b;\n\n        }  \n         //**************vcomparer de chaines de caracteres**********************//\n\n\n\n     function compareStrings(string memory a, string memory b) private  pure returns (bool) {\n    return (keccak256(abi.encodePacked((a))) == keccak256(abi.encodePacked((b))));\n           }\n           \n           \n       //**************verifier signature utilisateur**********************//\n\n     \n        function recover(bytes32 hash, bytes memory signature) private  pure returns (address){\n            \n          bytes32 r;\n          bytes32 s;\n          uint8 v;\n\n          // Check the signature length\n          if (signature.length != 65) {\n             return (address(0));\n            }\n\n         // Divide the signature in r, s and v variables\n         // ecrecover takes the signature parameters, and the only way to get them\n         // currently is to use assembly.\n         // solium-disable-next-line security/no-inline-assembly\n         assembly {\n         r := mload(add(signature, 0x20))\n         s := mload(add(signature, 0x40))\n         v := byte(0, mload(add(signature, 0x60)))\n         }\n\n          // Version of signature should be 27 or 28, but 0 and 1 are also possible versions\n         if (v < 27) {\n          v += 27;\n          }\n\n         // If the version is correct return the signer address\n         if (v != 27 && v != 28) {\n          return (address(0));\n           } else {\n         // solium-disable-next-line arg-overflow\n        return ecrecover(hash, v, r, s);\n    }\n  }\n  \n  \n           //**************convertir address en string**********************//\n\n  function addressToString(address _address) private pure returns(string memory) {\n       bytes32 _bytes = bytes32(uint256(_address));\n       bytes memory HEX = \"0123456789abcdef\";\n       bytes memory _string = new bytes(42);\n       _string[0] = '0';\n       _string[1] = 'x';\n       for(uint i = 0; i < 20; i++) {\n           _string[2+i*2] = HEX[uint8(_bytes[i + 12] >> 4)];\n           _string[3+i*2] = HEX[uint8(_bytes[i + 12] & 0x0f)];\n       }\n       return string(_string);\n    }\n    \n    \n    \n  \n}\n\n \n  \n\n",
  "sourcePath": "/home/abdettaib/Vidos/administrateur/contracts/authentification.sol",
  "compiler": {
    "name": "solc",
    "version": "0.5.16+commit.9c3226ce.Emscripten.clang"
  },
  "schemaVersion": "3.4.0",
  "updatedAt": "2021-09-06T10:02:32.836Z",
  "networkType": "ethereum",
  "devdoc": {
    "methods": {}
  },
  "userdoc": {
    "methods": {}
  }
}